{"abi":[{"type":"function","name":"claims","inputs":[{"name":"","type":"uint256","internalType":"uint256"}],"outputs":[{"name":"id","type":"uint256","internalType":"uint256"},{"name":"claimant","type":"address","internalType":"address"},{"name":"filecoinCid","type":"string","internalType":"string"},{"name":"timestamp","type":"uint256","internalType":"uint256"},{"name":"isVerified","type":"bool","internalType":"bool"}],"stateMutability":"view"},{"type":"function","name":"fileClaim","inputs":[{"name":"_filecoinCid","type":"string","internalType":"string"}],"outputs":[{"name":"","type":"uint256","internalType":"uint256"}],"stateMutability":"nonpayable"},{"type":"function","name":"nextClaimId","inputs":[],"outputs":[{"name":"","type":"uint256","internalType":"uint256"}],"stateMutability":"view"},{"type":"function","name":"verifyClaim","inputs":[{"name":"_claimId","type":"uint256","internalType":"uint256"}],"outputs":[],"stateMutability":"nonpayable"},{"type":"event","name":"ClaimFiled","inputs":[{"name":"id","type":"uint256","indexed":true,"internalType":"uint256"},{"name":"claimant","type":"address","indexed":true,"internalType":"address"},{"name":"filecoinCid","type":"string","indexed":false,"internalType":"string"}],"anonymous":false},{"type":"event","name":"ClaimVerified","inputs":[{"name":"id","type":"uint256","indexed":true,"internalType":"uint256"}],"anonymous":false}],"bytecode":{"object":"0x6080604052348015600e575f5ffd5b50610b058061001c5f395ff3fe608060405234801561000f575f5ffd5b506004361061004a575f3560e01c8063a0021cf11461004e578063a888c2cd1461006c578063c0d7e2b6146100a0578063e16d2bae146100bc575b5f5ffd5b6100566100ec565b60405161006391906103e3565b60405180910390f35b61008660048036038101906100819190610437565b6100f2565b60405161009795949392919061052b565b60405180910390f35b6100ba60048036038101906100b59190610437565b6101d4565b005b6100d660048036038101906100d191906106af565b61027a565b6040516100e391906103e3565b60405180910390f35b60015481565b5f602052805f5260405f205f91509050805f015490806001015f9054906101000a900473ffffffffffffffffffffffffffffffffffffffff169080600201805461013b90610723565b80601f016020809104026020016040519081016040528092919081815260200182805461016790610723565b80156101b25780601f10610189576101008083540402835291602001916101b2565b820191905f5260205f20905b81548152906001019060200180831161019557829003601f168201915b505050505090806003015490806004015f9054906101000a900460ff16905085565b5f5f5f8381526020019081526020015f2090505f81600301540361022d576040517f08c379a00000000000000000000000000000000000000000000000000000000081526004016102249061079d565b60405180910390fd5b6001816004015f6101000a81548160ff021916908315150217905550817f393efda0b92bc01071b66a816d6bcddde867b8c91da505a0f309d9133a53650a60405160405180910390a25050565b5f5f60015f81548092919061028e906107e8565b9190505590506040518060a001604052808281526020013373ffffffffffffffffffffffffffffffffffffffff1681526020018481526020014281526020015f15158152505f5f8381526020019081526020015f205f820151815f01556020820151816001015f6101000a81548173ffffffffffffffffffffffffffffffffffffffff021916908373ffffffffffffffffffffffffffffffffffffffff160217905550604082015181600201908161034691906109e0565b50606082015181600301556080820151816004015f6101000a81548160ff0219169083151502179055509050503373ffffffffffffffffffffffffffffffffffffffff16817f625b50278b311579e63467355d19806c928f4c5944f76b7286fa2fa91cdf5f41856040516103ba9190610aaf565b60405180910390a380915050919050565b5f819050919050565b6103dd816103cb565b82525050565b5f6020820190506103f65f8301846103d4565b92915050565b5f604051905090565b5f5ffd5b5f5ffd5b610416816103cb565b8114610420575f5ffd5b50565b5f813590506104318161040d565b92915050565b5f6020828403121561044c5761044b610405565b5b5f61045984828501610423565b91505092915050565b5f73ffffffffffffffffffffffffffffffffffffffff82169050919050565b5f61048b82610462565b9050919050565b61049b81610481565b82525050565b5f81519050919050565b5f82825260208201905092915050565b8281835e5f83830152505050565b5f601f19601f8301169050919050565b5f6104e3826104a1565b6104ed81856104ab565b93506104fd8185602086016104bb565b610506816104c9565b840191505092915050565b5f8115159050919050565b61052581610511565b82525050565b5f60a08201905061053e5f8301886103d4565b61054b6020830187610492565b818103604083015261055d81866104d9565b905061056c60608301856103d4565b610579608083018461051c565b9695505050505050565b5f5ffd5b5f5ffd5b7f4e487b71000000000000000000000000000000000000000000000000000000005f52604160045260245ffd5b6105c1826104c9565b810181811067ffffffffffffffff821117156105e0576105df61058b565b5b80604052505050565b5f6105f26103fc565b90506105fe82826105b8565b919050565b5f67ffffffffffffffff82111561061d5761061c61058b565b5b610626826104c9565b9050602081019050919050565b828183375f83830152505050565b5f61065361064e84610603565b6105e9565b90508281526020810184848401111561066f5761066e610587565b5b61067a848285610633565b509392505050565b5f82601f83011261069657610695610583565b5b81356106a6848260208601610641565b91505092915050565b5f602082840312156106c4576106c3610405565b5b5f82013567ffffffffffffffff8111156106e1576106e0610409565b5b6106ed84828501610682565b91505092915050565b7f4e487b71000000000000000000000000000000000000000000000000000000005f52602260045260245ffd5b5f600282049050600182168061073a57607f821691505b60208210810361074d5761074c6106f6565b5b50919050565b7f436c61696d20646f6573206e6f742065786973740000000000000000000000005f82015250565b5f6107876014836104ab565b915061079282610753565b602082019050919050565b5f6020820190508181035f8301526107b48161077b565b9050919050565b7f4e487b71000000000000000000000000000000000000000000000000000000005f52601160045260245ffd5b5f6107f2826103cb565b91507fffffffffffffffffffffffffffffffffffffffffffffffffffffffffffffffff8203610824576108236107bb565b5b600182019050919050565b5f819050815f5260205f209050919050565b5f6020601f8301049050919050565b5f82821b905092915050565b5f6008830261088b7fffffffffffffffffffffffffffffffffffffffffffffffffffffffffffffffff82610850565b6108958683610850565b95508019841693508086168417925050509392505050565b5f819050919050565b5f6108d06108cb6108c6846103cb565b6108ad565b6103cb565b9050919050565b5f819050919050565b6108e9836108b6565b6108fd6108f5826108d7565b84845461085c565b825550505050565b5f5f905090565b610914610905565b61091f8184846108e0565b505050565b5f5b828110156109455761093a5f82840161090c565b600181019050610926565b505050565b601f8211156109985782821115610997576109648161082f565b61096d83610841565b61097685610841565b6020861015610983575f90505b80830161099282840382610924565b505050505b5b505050565b5f82821c905092915050565b5f6109b85f198460080261099d565b1980831691505092915050565b5f6109d083836109a9565b9150826002028217905092915050565b6109e9826104a1565b67ffffffffffffffff811115610a0257610a0161058b565b5b610a0c8254610723565b610a1782828561094a565b5f60209050601f831160018114610a48575f8415610a36578287015190505b610a4085826109c5565b865550610aa7565b601f198416610a568661082f565b5f5b82811015610a7d57848901518255600182019150602085019450602081019050610a58565b86831015610a9a5784890151610a96601f8916826109a9565b8355505b6001600288020188555050505b505050505050565b5f6020820190508181035f830152610ac781846104d9565b90509291505056fea264697066735822122020d73b07540374ff85a9473fd4509280e759567f38abf41e27dd2fdde382d59664736f6c63430008230033","linkReferences":{}},"methodIdentifiers":{"claims(uint256)":"a888c2cd","fileClaim(string)":"e16d2bae","nextClaimId()":"a0021cf1","verifyClaim(uint256)":"c0d7e2b6"},"id":0}