{"contracts/ClaimRegistry.sol":{"ClaimRegistry":{"abi":[{"anonymous":false,"inputs":[{"indexed":true,"internalType":"uint256","name":"id","type":"uint256"},{"indexed":true,"internalType":"address","name":"claimant","type":"address"},{"indexed":false,"internalType":"string","name":"filecoinCid","type":"string"}],"name":"ClaimFiled","type":"event"},{"anonymous":false,"inputs":[{"indexed":true,"internalType":"uint256","name":"id","type":"uint256"}],"name":"ClaimVerified","type":"event"},{"inputs":[{"internalType":"uint256","name":"","type":"uint256"}],"name":"claims","outputs":[{"internalType":"uint256","name":"id","type":"uint256"},{"internalType":"address","name":"claimant","type":"address"},{"internalType":"string","name":"filecoinCid","type":"string"},{"internalType":"uint256","name":"timestamp","type":"uint256"},{"internalType":"bool","name":"isVerified","type":"bool"}],"stateMutability":"view","type":"function"},{"inputs":[{"internalType":"string","name":"_filecoinCid","type":"string"}],"name":"fileClaim","outputs":[{"internalType":"uint256","name":"","type":"uint256"}],"stateMutability":"nonpayable","type":"function"},{"inputs":[],"name":"nextClaimId","outputs":[{"internalType":"uint256","name":"","type":"uint256"}],"stateMutability":"view","type":"function"},{"inputs":[{"internalType":"uint256","name":"_claimId","type":"uint256"}],"name":"verifyClaim","outputs":[],"stateMutability":"nonpayable","type":"function"}],"evm":{"bytecode":{"linkReferences":{},"object":"608060405234801561001057600080fd5b50610b63806100206000396000f3fe608060405234801561001057600080fd5b506004361061004c5760003560e01c8063a0021cf114610051578063a888c2cd1461006f578063c0d7e2b6146100a3578063e16d2bae146100bf575b600080fd5b6100596100ef565b60405161006691906103fe565b60405180910390f35b61008960048036038101906100849190610459565b6100f5565b60405161009a959493929190610572565b60405180910390f35b6100bd60048036038101906100b89190610459565b6101e0565b005b6100d960048036038101906100d49190610701565b61028b565b6040516100e691906103fe565b60405180910390f35b60015481565b60006020528060005260406000206000915090508060000154908060010160009054906101000a900473ffffffffffffffffffffffffffffffffffffffff169080600201805461014490610779565b80601f016020809104026020016040519081016040528092919081815260200182805461017090610779565b80156101bd5780601f10610192576101008083540402835291602001916101bd565b820191906000526020600020905b8154815290600101906020018083116101a057829003601f168201915b5050505050908060030154908060040160009054906101000a900460ff16905085565b60008060008381526020019081526020016000209050600081600301540361023d576040517f08c379a0000000000000000000000000000000000000000000000000000000008152600401610234906107f6565b60405180910390fd5b60018160040160006101000a81548160ff021916908315150217905550817f393efda0b92bc01071b66a816d6bcddde867b8c91da505a0f309d9133a53650a60405160405180910390a25050565b600080600160008154809291906102a190610845565b9190505590506040518060a001604052808281526020013373ffffffffffffffffffffffffffffffffffffffff168152602001848152602001428152602001600015158152506000808381526020019081526020016000206000820151816000015560208201518160010160006101000a81548173ffffffffffffffffffffffffffffffffffffffff021916908373ffffffffffffffffffffffffffffffffffffffff160217905550604082015181600201908161035f9190610a39565b506060820151816003015560808201518160040160006101000a81548160ff0219169083151502179055509050503373ffffffffffffffffffffffffffffffffffffffff16817f625b50278b311579e63467355d19806c928f4c5944f76b7286fa2fa91cdf5f41856040516103d49190610b0b565b60405180910390a380915050919050565b6000819050919050565b6103f8816103e5565b82525050565b600060208201905061041360008301846103ef565b92915050565b6000604051905090565b600080fd5b600080fd5b610436816103e5565b811461044157600080fd5b50565b6000813590506104538161042d565b92915050565b60006020828403121561046f5761046e610423565b5b600061047d84828501610444565b91505092915050565b600073ffffffffffffffffffffffffffffffffffffffff82169050919050565b60006104b182610486565b9050919050565b6104c1816104a6565b82525050565b600081519050919050565b600082825260208201905092915050565b60005b838110156105015780820151818401526020810190506104e6565b60008484015250505050565b6000601f19601f8301169050919050565b6000610529826104c7565b61053381856104d2565b93506105438185602086016104e3565b61054c8161050d565b840191505092915050565b60008115159050919050565b61056c81610557565b82525050565b600060a08201905061058760008301886103ef565b61059460208301876104b8565b81810360408301526105a6818661051e565b90506105b560608301856103ef565b6105c26080830184610563565b9695505050505050565b600080fd5b600080fd5b7f4e487b7100000000000000000000000000000000000000000000000000000000600052604160045260246000fd5b61060e8261050d565b810181811067ffffffffffffffff8211171561062d5761062c6105d6565b5b80604052505050565b6000610640610419565b905061064c8282610605565b919050565b600067ffffffffffffffff82111561066c5761066b6105d6565b5b6106758261050d565b9050602081019050919050565b82818337600083830152505050565b60006106a461069f84610651565b610636565b9050828152602081018484840111156106c0576106bf6105d1565b5b6106cb848285610682565b509392505050565b600082601f8301126106e8576106e76105cc565b5b81356106f8848260208601610691565b91505092915050565b60006020828403121561071757610716610423565b5b600082013567ffffffffffffffff81111561073557610734610428565b5b610741848285016106d3565b91505092915050565b7f4e487b7100000000000000000000000000000000000000000000000000000000600052602260045260246000fd5b6000600282049050600182168061079157607f821691505b6020821081036107a4576107a361074a565b5b50919050565b7f436c61696d20646f6573206e6f74206578697374000000000000000000000000600082015250565b60006107e06014836104d2565b91506107eb826107aa565b602082019050919050565b6000602082019050818103600083015261080f816107d3565b9050919050565b7f4e487b7100000000000000000000000000000000000000000000000000000000600052601160045260246000fd5b6000610850826103e5565b91507fffffffffffffffffffffffffffffffffffffffffffffffffffffffffffffffff820361088257610881610816565b5b600182019050919050565b60008190508160005260206000209050919050565b60006020601f8301049050919050565b600082821b905092915050565b6000600883026108ef7fffffffffffffffffffffffffffffffffffffffffffffffffffffffffffffffff826108b2565b6108f986836108b2565b95508019841693508086168417925050509392505050565b6000819050919050565b600061093661093161092c846103e5565b610911565b6103e5565b9050919050565b6000819050919050565b6109508361091b565b61096461095c8261093d565b8484546108bf565b825550505050565b600090565b61097961096c565b610984818484610947565b505050565b5b818110156109a85761099d600082610971565b60018101905061098a565b5050565b601f8211156109ed576109be8161088d565b6109c7846108a2565b810160208510156109d6578190505b6109ea6109e2856108a2565b830182610989565b50505b505050565b600082821c905092915050565b6000610a10600019846008026109f2565b1980831691505092915050565b6000610a2983836109ff565b9150826002028217905092915050565b610a42826104c7565b67ffffffffffffffff811115610a5b57610a5a6105d6565b5b610a658254610779565b610a708282856109ac565b600060209050601f831160018114610aa35760008415610a91578287015190505b610a9b8582610a1d565b865550610b03565b601f198416610ab18661088d565b60005b82811015610ad957848901518255600182019150602085019450602081019050610ab4565b86831015610af65784890151610af2601f8916826109ff565b8355505b6001600288020188555050505b505050505050565b60006020820190508181036000830152610b25818461051e565b90509291505056fea2646970667358221220e6c050d74f3fe4cf0b5d0e82f97dbabb08d1ce8b447b83dfb73355854c4aae4164736f6c63430008180033","opcodes":"PUSH1 0x80 PUSH1 0x40 MSTORE CALLVALUE DUP1 ISZERO PUSH2 0x10 JUMPI PUSH1 0x0 DUP1 REVERT JUMPDEST POP PUSH2 0xB63 DUP1 PUSH2 0x20 PUSH1 0x0 CODECOPY PUSH1 0x0 RETURN INVALID PUSH1 0x80 PUSH1 0x40 MSTORE CALLVALUE DUP1 ISZERO PUSH2 0x10 JUMPI PUSH1 0x0 DUP1 REVERT JUMPDEST POP PUSH1 0x4 CALLDATASIZE LT PUSH2 0x4C JUMPI PUSH1 0x0 CALLDATALOAD PUSH1 0xE0 SHR DUP1 PUSH4 0xA0021CF1 EQ PUSH2 0x51 JUMPI DUP1 PUSH4 0xA888C2CD EQ PUSH2 0x6F JUMPI DUP1 PUSH4 0xC0D7E2B6 EQ PUSH2 0xA3 JUMPI DUP1 PUSH4 0xE16D2BAE EQ PUSH2 0xBF JUMPI JUMPDEST PUSH1 0x0 DUP1 REVERT JUMPDEST PUSH2 0x59 PUSH2 0xEF JUMP JUMPDEST PUSH1 0x40 MLOAD PUSH2 0x66 SWAP2 SWAP1 PUSH2 0x3FE JUMP JUMPDEST PUSH1 0x40 MLOAD DUP1 SWAP2 SUB SWAP1 RETURN JUMPDEST PUSH2 0x89 PUSH1 0x4 DUP1 CALLDATASIZE SUB DUP2 ADD SWAP1 PUSH2 0x84 SWAP2 SWAP1 PUSH2 0x459 JUMP JUMPDEST PUSH2 0xF5 JUMP JUMPDEST PUSH1 0x40 MLOAD PUSH2 0x9A SWAP6 SWAP5 SWAP4 SWAP3 SWAP2 SWAP1 PUSH2 0x572 JUMP JUMPDEST PUSH1 0x40 MLOAD DUP1 SWAP2 SUB SWAP1 RETURN JUMPDEST PUSH2 0xBD PUSH1 0x4 DUP1 CALLDATASIZE SUB DUP2 ADD SWAP1 PUSH2 0xB8 SWAP2 SWAP1 PUSH2 0x459 JUMP JUMPDEST PUSH2 0x1E0 JUMP JUMPDEST STOP JUMPDEST PUSH2 0xD9 PUSH1 0x4 DUP1 CALLDATASIZE SUB DUP2 ADD SWAP1 PUSH2 0xD4 SWAP2 SWAP1 PUSH2 0x701 JUMP JUMPDEST PUSH2 0x28B JUMP JUMPDEST PUSH1 0x40 MLOAD PUSH2 0xE6 SWAP2 SWAP1 PUSH2 0x3FE JUMP JUMPDEST PUSH1 0x40 MLOAD DUP1 SWAP2 SUB SWAP1 RETURN JUMPDEST PUSH1 0x1 SLOAD DUP2 JUMP JUMPDEST PUSH1 0x0 PUSH1 0x20 MSTORE DUP1 PUSH1 0x0 MSTORE PUSH1 0x40 PUSH1 0x0 KECCAK256 PUSH1 0x0 SWAP2 POP SWAP1 POP DUP1 PUSH1 0x0 ADD SLOAD SWAP1 DUP1 PUSH1 0x1 ADD PUSH1 0x0 SWAP1 SLOAD SWAP1 PUSH2 0x100 EXP SWAP1 DIV PUSH20 0xFFFFFFFFFFFFFFFFFFFFFFFFFFFFFFFFFFFFFFFF AND SWAP1 DUP1 PUSH1 0x2 ADD DUP1 SLOAD PUSH2 0x144 SWAP1 PUSH2 0x779 JUMP JUMPDEST DUP1 PUSH1 0x1F ADD PUSH1 0x20 DUP1 SWAP2 DIV MUL PUSH1 0x20 ADD PUSH1 0x40 MLOAD SWAP1 DUP2 ADD PUSH1 0x40 MSTORE DUP1 SWAP3 SWAP2 SWAP1 DUP2 DUP2 MSTORE PUSH1 0x20 ADD DUP3 DUP1 SLOAD PUSH2 0x170 SWAP1 PUSH2 0x779 JUMP JUMPDEST DUP1 ISZERO PUSH2 0x1BD JUMPI DUP1 PUSH1 0x1F LT PUSH2 0x192 JUMPI PUSH2 0x100 DUP1 DUP4 SLOAD DIV MUL DUP4 MSTORE SWAP2 PUSH1 0x20 ADD SWAP2 PUSH2 0x1BD JUMP JUMPDEST DUP3 ADD SWAP2 SWAP1 PUSH1 0x0 MSTORE PUSH1 0x20 PUSH1 0x0 KECCAK256 SWAP1 JUMPDEST DUP2 SLOAD DUP2 MSTORE SWAP1 PUSH1 0x1 ADD SWAP1 PUSH1 0x20 ADD DUP1 DUP4 GT PUSH2 0x1A0 JUMPI DUP3 SWAP1 SUB PUSH1 0x1F AND DUP3 ADD SWAP2 JUMPDEST POP POP POP POP POP SWAP1 DUP1 PUSH1 0x3 ADD SLOAD SWAP1 DUP1 PUSH1 0x4 ADD PUSH1 0x0 SWAP1 SLOAD SWAP1 PUSH2 0x100 EXP SWAP1 DIV PUSH1 0xFF AND SWAP1 POP DUP6 JUMP JUMPDEST PUSH1 0x0 DUP1 PUSH1 0x0 DUP4 DUP2 MSTORE PUSH1 0x20 ADD SWAP1 DUP2 MSTORE PUSH1 0x20 ADD PUSH1 0x0 KECCAK256 SWAP1 POP PUSH1 0x0 DUP2 PUSH1 0x3 ADD SLOAD SUB PUSH2 0x23D JUMPI PUSH1 0x40 MLOAD PUSH32 0x8C379A000000000000000000000000000000000000000000000000000000000 DUP2 MSTORE PUSH1 0x4 ADD PUSH2 0x234 SWAP1 PUSH2 0x7F6 JUMP JUMPDEST PUSH1 0x40 MLOAD DUP1 SWAP2 SUB SWAP1 REVERT JUMPDEST PUSH1 0x1 DUP2 PUSH1 0x4 ADD PUSH1 0x0 PUSH2 0x100 EXP DUP2 SLOAD DUP2 PUSH1 0xFF MUL NOT AND SWAP1 DUP4 ISZERO ISZERO MUL OR SWAP1 SSTORE POP DUP2 PUSH32 0x393EFDA0B92BC01071B66A816D6BCDDDE867B8C91DA505A0F309D9133A53650A PUSH1 0x40 MLOAD PUSH1 0x40 MLOAD DUP1 SWAP2 SUB SWAP1 LOG2 POP POP JUMP JUMPDEST PUSH1 0x0 DUP1 PUSH1 0x1 PUSH1 0x0 DUP2 SLOAD DUP1 SWAP3 SWAP2 SWAP1 PUSH2 0x2A1 SWAP1 PUSH2 0x845 JUMP JUMPDEST SWAP2 SWAP1 POP SSTORE SWAP1 POP PUSH1 0x40 MLOAD DUP1 PUSH1 0xA0 ADD PUSH1 0x40 MSTORE DUP1 DUP3 DUP2 MSTORE PUSH1 0x20 ADD CALLER PUSH20 0xFFFFFFFFFFFFFFFFFFFFFFFFFFFFFFFFFFFFFFFF AND DUP2 MSTORE PUSH1 0x20 ADD DUP5 DUP2 MSTORE PUSH1 0x20 ADD TIMESTAMP DUP2 MSTORE PUSH1 0x20 ADD PUSH1 0x0 ISZERO ISZERO DUP2 MSTORE POP PUSH1 0x0 DUP1 DUP4 DUP2 MSTORE PUSH1 0x20 ADD SWAP1 DUP2 MSTORE PUSH1 0x20 ADD PUSH1 0x0 KECCAK256 PUSH1 0x0 DUP3 ADD MLOAD DUP2 PUSH1 0x0 ADD SSTORE PUSH1 0x20 DUP3 ADD MLOAD DUP2 PUSH1 0x1 ADD PUSH1 0x0 PUSH2 0x100 EXP DUP2 SLOAD DUP2 PUSH20 0xFFFFFFFFFFFFFFFFFFFFFFFFFFFFFFFFFFFFFFFF MUL NOT AND SWAP1 DUP4 PUSH20 0xFFFFFFFFFFFFFFFFFFFFFFFFFFFFFFFFFFFFFFFF AND MUL OR SWAP1 SSTORE POP PUSH1 0x40 DUP3 ADD MLOAD DUP2 PUSH1 0x2 ADD SWAP1 DUP2 PUSH2 0x35F SWAP2 SWAP1 PUSH2 0xA39 JUMP JUMPDEST POP PUSH1 0x60 DUP3 ADD MLOAD DUP2 PUSH1 0x3 ADD SSTORE PUSH1 0x80 DUP3 ADD MLOAD DUP2 PUSH1 0x4 ADD PUSH1 0x0 PUSH2 0x100 EXP DUP2 SLOAD DUP2 PUSH1 0xFF MUL NOT AND SWAP1 DUP4 ISZERO ISZERO MUL OR SWAP1 SSTORE POP SWAP1 POP POP CALLER PUSH20 0xFFFFFFFFFFFFFFFFFFFFFFFFFFFFFFFFFFFFFFFF AND DUP2 PUSH32 0x625B50278B311579E63467355D19806C928F4C5944F76B7286FA2FA91CDF5F41 DUP6 PUSH1 0x40 MLOAD PUSH2 0x3D4 SWAP2 SWAP1 PUSH2 0xB0B JUMP JUMPDEST PUSH1 0x40 MLOAD DUP1 SWAP2 SUB SWAP1 LOG3 DUP1 SWAP2 POP POP SWAP2 SWAP1 POP JUMP JUMPDEST PUSH1 0x0 DUP2 SWAP1 POP SWAP2 SWAP1 POP JUMP JUMPDEST PUSH2 0x3F8 DUP2 PUSH2 0x3E5 JUMP JUMPDEST DUP3 MSTORE POP POP JUMP JUMPDEST PUSH1 0x0 PUSH1 0x20 DUP3 ADD SWAP1 POP PUSH2 0x413 PUSH1 0x0 DUP4 ADD DUP5 PUSH2 0x3EF JUMP JUMPDEST SWAP3 SWAP2 POP POP JUMP JUMPDEST PUSH1 0x0 PUSH1 0x40 MLOAD SWAP1 POP SWAP1 JUMP JUMPDEST PUSH1 0x0 DUP1 REVERT JUMPDEST PUSH1 0x0 DUP1 REVERT JUMPDEST PUSH2 0x436 DUP2 PUSH2 0x3E5 JUMP JUMPDEST DUP2 EQ PUSH2 0x441 JUMPI PUSH1 0x0 DUP1 REVERT JUMPDEST POP JUMP JUMPDEST PUSH1 0x0 DUP2 CALLDATALOAD SWAP1 POP PUSH2 0x453 DUP2 PUSH2 0x42D JUMP JUMPDEST SWAP3 SWAP2 POP POP JUMP JUMPDEST PUSH1 0x0 PUSH1 0x20 DUP3 DUP5 SUB SLT ISZERO PUSH2 0x46F JUMPI PUSH2 0x46E PUSH2 0x423 JUMP JUMPDEST JUMPDEST PUSH1 0x0 PUSH2 0x47D DUP5 DUP3 DUP6 ADD PUSH2 0x444 JUMP JUMPDEST SWAP2 POP POP SWAP3 SWAP2 POP POP JUMP JUMPDEST PUSH1 0x0 PUSH20 0xFFFFFFFFFFFFFFFFFFFFFFFFFFFFFFFFFFFFFFFF DUP3 AND SWAP1 POP SWAP2 SWAP1 POP JUMP JUMPDEST PUSH1 0x0 PUSH2 0x4B1 DUP3 PUSH2 0x486 JUMP JUMPDEST SWAP1 POP SWAP2 SWAP1 POP JUMP JUMPDEST PUSH2 0x4C1 DUP2 PUSH2 0x4A6 JUMP JUMPDEST DUP3 MSTORE POP POP JUMP JUMPDEST PUSH1 0x0 DUP2 MLOAD SWAP1 POP SWAP2 SWAP1 POP JUMP JUMPDEST PUSH1 0x0 DUP3 DUP3 MSTORE PUSH1 0x20 DUP3 ADD SWAP1 POP SWAP3 SWAP2 POP POP JUMP JUMPDEST PUSH1 0x0 JUMPDEST DUP4 DUP2 LT ISZERO PUSH2 0x501 JUMPI DUP1 DUP3 ADD MLOAD DUP2 DUP5 ADD MSTORE PUSH1 0x20 DUP2 ADD SWAP1 POP PUSH2 0x4E6 JUMP JUMPDEST PUSH1 0x0 DUP5 DUP5 ADD MSTORE POP POP POP POP JUMP JUMPDEST PUSH1 0x0 PUSH1 0x1F NOT PUSH1 0x1F DUP4 ADD AND SWAP1 POP SWAP2 SWAP1 POP JUMP JUMPDEST PUSH1 0x0 PUSH2 0x529 DUP3 PUSH2 0x4C7 JUMP JUMPDEST PUSH2 0x533 DUP2 DUP6 PUSH2 0x4D2 JUMP JUMPDEST SWAP4 POP PUSH2 0x543 DUP2 DUP6 PUSH1 0x20 DUP7 ADD PUSH2 0x4E3 JUMP JUMPDEST PUSH2 0x54C DUP2 PUSH2 0x50D JUMP JUMPDEST DUP5 ADD SWAP2 POP POP SWAP3 SWAP2 POP POP JUMP JUMPDEST PUSH1 0x0 DUP2 ISZERO ISZERO SWAP1 POP SWAP2 SWAP1 POP JUMP JUMPDEST PUSH2 0x56C DUP2 PUSH2 0x557 JUMP JUMPDEST DUP3 MSTORE POP POP JUMP JUMPDEST PUSH1 0x0 PUSH1 0xA0 DUP3 ADD SWAP1 POP PUSH2 0x587 PUSH1 0x0 DUP4 ADD DUP9 PUSH2 0x3EF JUMP JUMPDEST PUSH2 0x594 PUSH1 0x20 DUP4 ADD DUP8 PUSH2 0x4B8 JUMP JUMPDEST DUP2 DUP2 SUB PUSH1 0x40 DUP4 ADD MSTORE PUSH2 0x5A6 DUP2 DUP7 PUSH2 0x51E JUMP JUMPDEST SWAP1 POP PUSH2 0x5B5 PUSH1 0x60 DUP4 ADD DUP6 PUSH2 0x3EF JUMP JUMPDEST PUSH2 0x5C2 PUSH1 0x80 DUP4 ADD DUP5 PUSH2 0x563 JUMP JUMPDEST SWAP7 SWAP6 POP POP POP POP POP POP JUMP JUMPDEST PUSH1 0x0 DUP1 REVERT JUMPDEST PUSH1 0x0 DUP1 REVERT JUMPDEST PUSH32 0x4E487B7100000000000000000000000000000000000000000000000000000000 PUSH1 0x0 MSTORE PUSH1 0x41 PUSH1 0x4 MSTORE PUSH1 0x24 PUSH1 0x0 REVERT JUMPDEST PUSH2 0x60E DUP3 PUSH2 0x50D JUMP JUMPDEST DUP2 ADD DUP2 DUP2 LT PUSH8 0xFFFFFFFFFFFFFFFF DUP3 GT OR ISZERO PUSH2 0x62D JUMPI PUSH2 0x62C PUSH2 0x5D6 JUMP JUMPDEST JUMPDEST DUP1 PUSH1 0x40 MSTORE POP POP POP JUMP JUMPDEST PUSH1 0x0 PUSH2 0x640 PUSH2 0x419 JUMP JUMPDEST SWAP1 POP PUSH2 0x64C DUP3 DUP3 PUSH2 0x605 JUMP JUMPDEST SWAP2 SWAP1 POP JUMP JUMPDEST PUSH1 0x0 PUSH8 0xFFFFFFFFFFFFFFFF DUP3 GT ISZERO PUSH2 0x66C JUMPI PUSH2 0x66B PUSH2 0x5D6 JUMP JUMPDEST JUMPDEST PUSH2 0x675 DUP3 PUSH2 0x50D JUMP JUMPDEST SWAP1 POP PUSH1 0x20 DUP2 ADD SWAP1 POP SWAP2 SWAP1 POP JUMP JUMPDEST DUP3 DUP2 DUP4 CALLDATACOPY PUSH1 0x0 DUP4 DUP4 ADD MSTORE POP POP POP JUMP JUMPDEST PUSH1 0x0 PUSH2 0x6A4 PUSH2 0x69F DUP5 PUSH2 0x651 JUMP JUMPDEST PUSH2 0x636 JUMP JUMPDEST SWAP1 POP DUP3 DUP2 MSTORE PUSH1 0x20 DUP2 ADD DUP5 DUP5 DUP5 ADD GT ISZERO PUSH2 0x6C0 JUMPI PUSH2 0x6BF PUSH2 0x5D1 JUMP JUMPDEST JUMPDEST PUSH2 0x6CB DUP5 DUP3 DUP6 PUSH2 0x682 JUMP JUMPDEST POP SWAP4 SWAP3 POP POP POP JUMP JUMPDEST PUSH1 0x0 DUP3 PUSH1 0x1F DUP4 ADD SLT PUSH2 0x6E8 JUMPI PUSH2 0x6E7 PUSH2 0x5CC JUMP JUMPDEST JUMPDEST DUP2 CALLDATALOAD PUSH2 0x6F8 DUP5 DUP3 PUSH1 0x20 DUP7 ADD PUSH2 0x691 JUMP JUMPDEST SWAP2 POP POP SWAP3 SWAP2 POP POP JUMP JUMPDEST PUSH1 0x0 PUSH1 0x20 DUP3 DUP5 SUB SLT ISZERO PUSH2 0x717 JUMPI PUSH2 0x716 PUSH2 0x423 JUMP JUMPDEST JUMPDEST PUSH1 0x0 DUP3 ADD CALLDATALOAD PUSH8 0xFFFFFFFFFFFFFFFF DUP2 GT ISZERO PUSH2 0x735 JUMPI PUSH2 0x734 PUSH2 0x428 JUMP JUMPDEST JUMPDEST PUSH2 0x741 DUP5 DUP3 DUP6 ADD PUSH2 0x6D3 JUMP JUMPDEST SWAP2 POP POP SWAP3 SWAP2 POP POP JUMP JUMPDEST PUSH32 0x4E487B7100000000000000000000000000000000000000000000000000000000 PUSH1 0x0 MSTORE PUSH1 0x22 PUSH1 0x4 MSTORE PUSH1 0x24 PUSH1 0x0 REVERT JUMPDEST PUSH1 0x0 PUSH1 0x2 DUP3 DIV SWAP1 POP PUSH1 0x1 DUP3 AND DUP1 PUSH2 0x791 JUMPI PUSH1 0x7F DUP3 AND SWAP2 POP JUMPDEST PUSH1 0x20 DUP3 LT DUP2 SUB PUSH2 0x7A4 JUMPI PUSH2 0x7A3 PUSH2 0x74A JUMP JUMPDEST JUMPDEST POP SWAP2 SWAP1 POP JUMP JUMPDEST PUSH32 0x436C61696D20646F6573206E6F74206578697374000000000000000000000000 PUSH1 0x0 DUP3 ADD MSTORE POP JUMP JUMPDEST PUSH1 0x0 PUSH2 0x7E0 PUSH1 0x14 DUP4 PUSH2 0x4D2 JUMP JUMPDEST SWAP2 POP PUSH2 0x7EB DUP3 PUSH2 0x7AA JUMP JUMPDEST PUSH1 0x20 DUP3 ADD SWAP1 POP SWAP2 SWAP1 POP JUMP JUMPDEST PUSH1 0x0 PUSH1 0x20 DUP3 ADD SWAP1 POP DUP2 DUP2 SUB PUSH1 0x0 DUP4 ADD MSTORE PUSH2 0x80F DUP2 PUSH2 0x7D3 JUMP JUMPDEST SWAP1 POP SWAP2 SWAP1 POP JUMP JUMPDEST PUSH32 0x4E487B7100000000000000000000000000000000000000000000000000000000 PUSH1 0x0 MSTORE PUSH1 0x11 PUSH1 0x4 MSTORE PUSH1 0x24 PUSH1 0x0 REVERT JUMPDEST PUSH1 0x0 PUSH2 0x850 DUP3 PUSH2 0x3E5 JUMP JUMPDEST SWAP2 POP PUSH32 0xFFFFFFFFFFFFFFFFFFFFFFFFFFFFFFFFFFFFFFFFFFFFFFFFFFFFFFFFFFFFFFFF DUP3 SUB PUSH2 0x882 JUMPI PUSH2 0x881 PUSH2 0x816 JUMP JUMPDEST JUMPDEST PUSH1 0x1 DUP3 ADD SWAP1 POP SWAP2 SWAP1 POP JUMP JUMPDEST PUSH1 0x0 DUP2 SWAP1 POP DUP2 PUSH1 0x0 MSTORE PUSH1 0x20 PUSH1 0x0 KECCAK256 SWAP1 POP SWAP2 SWAP1 POP JUMP JUMPDEST PUSH1 0x0 PUSH1 0x20 PUSH1 0x1F DUP4 ADD DIV SWAP1 POP SWAP2 SWAP1 POP JUMP JUMPDEST PUSH1 0x0 DUP3 DUP3 SHL SWAP1 POP SWAP3 SWAP2 POP POP JUMP JUMPDEST PUSH1 0x0 PUSH1 0x8 DUP4 MUL PUSH2 0x8EF PUSH32 0xFFFFFFFFFFFFFFFFFFFFFFFFFFFFFFFFFFFFFFFFFFFFFFFFFFFFFFFFFFFFFFFF DUP3 PUSH2 0x8B2 JUMP JUMPDEST PUSH2 0x8F9 DUP7 DUP4 PUSH2 0x8B2 JUMP JUMPDEST SWAP6 POP DUP1 NOT DUP5 AND SWAP4 POP DUP1 DUP7 AND DUP5 OR SWAP3 POP POP POP SWAP4 SWAP3 POP POP POP JUMP JUMPDEST PUSH1 0x0 DUP2 SWAP1 POP SWAP2 SWAP1 POP JUMP JUMPDEST PUSH1 0x0 PUSH2 0x936 PUSH2 0x931 PUSH2 0x92C DUP5 PUSH2 0x3E5 JUMP JUMPDEST PUSH2 0x911 JUMP JUMPDEST PUSH2 0x3E5 JUMP JUMPDEST SWAP1 POP SWAP2 SWAP1 POP JUMP JUMPDEST PUSH1 0x0 DUP2 SWAP1 POP SWAP2 SWAP1 POP JUMP JUMPDEST PUSH2 0x950 DUP4 PUSH2 0x91B JUMP JUMPDEST PUSH2 0x964 PUSH2 0x95C DUP3 PUSH2 0x93D JUMP JUMPDEST DUP5 DUP5 SLOAD PUSH2 0x8BF JUMP JUMPDEST DUP3 SSTORE POP POP POP POP JUMP JUMPDEST PUSH1 0x0 SWAP1 JUMP JUMPDEST PUSH2 0x979 PUSH2 0x96C JUMP JUMPDEST PUSH2 0x984 DUP2 DUP5 DUP5 PUSH2 0x947 JUMP JUMPDEST POP POP POP JUMP JUMPDEST JUMPDEST DUP2 DUP2 LT ISZERO PUSH2 0x9A8 JUMPI PUSH2 0x99D PUSH1 0x0 DUP3 PUSH2 0x971 JUMP JUMPDEST PUSH1 0x1 DUP2 ADD SWAP1 POP PUSH2 0x98A JUMP JUMPDEST POP POP JUMP JUMPDEST PUSH1 0x1F DUP3 GT ISZERO PUSH2 0x9ED JUMPI PUSH2 0x9BE DUP2 PUSH2 0x88D JUMP JUMPDEST PUSH2 0x9C7 DUP5 PUSH2 0x8A2 JUMP JUMPDEST DUP2 ADD PUSH1 0x20 DUP6 LT ISZERO PUSH2 0x9D6 JUMPI DUP2 SWAP1 POP JUMPDEST PUSH2 0x9EA PUSH2 0x9E2 DUP6 PUSH2 0x8A2 JUMP JUMPDEST DUP4 ADD DUP3 PUSH2 0x989 JUMP JUMPDEST POP POP JUMPDEST POP POP POP JUMP JUMPDEST PUSH1 0x0 DUP3 DUP3 SHR SWAP1 POP SWAP3 SWAP2 POP POP JUMP JUMPDEST PUSH1 0x0 PUSH2 0xA10 PUSH1 0x0 NOT DUP5 PUSH1 0x8 MUL PUSH2 0x9F2 JUMP JUMPDEST NOT DUP1 DUP4 AND SWAP2 POP POP SWAP3 SWAP2 POP POP JUMP JUMPDEST PUSH1 0x0 PUSH2 0xA29 DUP4 DUP4 PUSH2 0x9FF JUMP JUMPDEST SWAP2 POP DUP3 PUSH1 0x2 MUL DUP3 OR SWAP1 POP SWAP3 SWAP2 POP POP JUMP JUMPDEST PUSH2 0xA42 DUP3 PUSH2 0x4C7 JUMP JUMPDEST PUSH8 0xFFFFFFFFFFFFFFFF DUP2 GT ISZERO PUSH2 0xA5B JUMPI PUSH2 0xA5A PUSH2 0x5D6 JUMP JUMPDEST JUMPDEST PUSH2 0xA65 DUP3 SLOAD PUSH2 0x779 JUMP JUMPDEST PUSH2 0xA70 DUP3 DUP3 DUP6 PUSH2 0x9AC JUMP JUMPDEST PUSH1 0x0 PUSH1 0x20 SWAP1 POP PUSH1 0x1F DUP4 GT PUSH1 0x1 DUP2 EQ PUSH2 0xAA3 JUMPI PUSH1 0x0 DUP5 ISZERO PUSH2 0xA91 JUMPI DUP3 DUP8 ADD MLOAD SWAP1 POP JUMPDEST PUSH2 0xA9B DUP6 DUP3 PUSH2 0xA1D JUMP JUMPDEST DUP7 SSTORE POP PUSH2 0xB03 JUMP JUMPDEST PUSH1 0x1F NOT DUP5 AND PUSH2 0xAB1 DUP7 PUSH2 0x88D JUMP JUMPDEST PUSH1 0x0 JUMPDEST DUP3 DUP2 LT ISZERO PUSH2 0xAD9 JUMPI DUP5 DUP10 ADD MLOAD DUP3 SSTORE PUSH1 0x1 DUP3 ADD SWAP2 POP PUSH1 0x20 DUP6 ADD SWAP5 POP PUSH1 0x20 DUP2 ADD SWAP1 POP PUSH2 0xAB4 JUMP JUMPDEST DUP7 DUP4 LT ISZERO PUSH2 0xAF6 JUMPI DUP5 DUP10 ADD MLOAD PUSH2 0xAF2 PUSH1 0x1F DUP10 AND DUP3 PUSH2 0x9FF JUMP JUMPDEST DUP4 SSTORE POP JUMPDEST PUSH1 0x1 PUSH1 0x2 DUP9 MUL ADD DUP9 SSTORE POP POP POP JUMPDEST POP POP POP POP POP POP JUMP JUMPDEST PUSH1 0x0 PUSH1 0x20 DUP3 ADD SWAP1 POP DUP2 DUP2 SUB PUSH1 0x0 DUP4 ADD MSTORE PUSH2 0xB25 DUP2 DUP5 PUSH2 0x51E JUMP JUMPDEST SWAP1 POP SWAP3 SWAP2 POP POP JUMP INVALID LOG2 PUSH5 0x6970667358 0x22 SLT KECCAK256 0xE6 0xC0 POP 0xD7 0x4F EXTCODEHASH 0xE4 0xCF SIGNEXTEND TSTORE 0xE DUP3 0xF9 PUSH30 0xBABB08D1CE8B447B83DFB73355854C4AAE4164736F6C6343000818003300 "},"methodIdentifiers":{"claims(uint256)":"a888c2cd","fileClaim(string)":"e16d2bae","nextClaimId()":"a0021cf1","verifyClaim(uint256)":"c0d7e2b6"}}}}}