{
  "_format": "hh-sol-artifact-1",
  "contractName": "AlkahestEscrow",
  "sourceName": "contracts/AlkahestEscrow.sol",
  "abi": [
    {
      "anonymous": false,
      "inputs": [
        {
          "indexed": true,
          "internalType": "uint256",
          "name": "escrowId",
          "type": "uint256"
        },
        {
          "indexed": true,
          "internalType": "address",
          "name": "payer",
          "type": "address"
        },
        {
          "indexed": true,
          "internalType": "address",
          "name": "payee",
          "type": "address"
        },
        {
          "indexed": false,
          "internalType": "uint256",
          "name": "amount",
          "type": "uint256"
        }
      ],
      "name": "EscrowCreated",
      "type": "event"
    },
    {
      "anonymous": false,
      "inputs": [
        {
          "indexed": true,
          "internalType": "uint256",
          "name": "escrowId",
          "type": "uint256"
        }
      ],
      "name": "EscrowRefunded",
      "type": "event"
    },
    {
      "anonymous": false,
      "inputs": [
        {
          "indexed": true,
          "internalType": "uint256",
          "name": "escrowId",
          "type": "uint256"
        }
      ],
      "name": "EscrowReleased",
      "type": "event"
    },
    {
      "inputs": [
        {
          "internalType": "address",
          "name": "payee",
          "type": "address"
        },
        {
          "internalType": "uint256",
          "name": "amount",
          "type": "uint256"
        }
      ],
      "name": "createEscrow",
      "outputs": [
        {
          "internalType": "uint256",
          "name": "",
          "type": "uint256"
        }
      ],
      "stateMutability": "payable",
      "type": "function"
    },
    {
      "inputs": [
        {
          "internalType": "uint256",
          "name": "",
          "type": "uint256"
        }
      ],
      "name": "escrows",
      "outputs": [
        {
          "internalType": "uint256",
          "name": "id",
          "type": "uint256"
        },
        {
          "internalType": "address",
          "name": "payer",
          "type": "address"
        },
        {
          "internalType": "address",
          "name": "payee",
          "type": "address"
        },
        {
          "internalType": "uint256",
          "name": "amount",
          "type": "uint256"
        },
        {
          "internalType": "bool",
          "name": "isReleased",
          "type": "bool"
        },
        {
          "internalType": "bool",
          "name": "isRefunded",
          "type": "bool"
        }
      ],
      "stateMutability": "view",
      "type": "function"
    },
    {
      "inputs": [],
      "name": "nextEscrowId",
      "outputs": [
        {
          "internalType": "uint256",
          "name": "",
          "type": "uint256"
        }
      ],
      "stateMutability": "view",
      "type": "function"
    },
    {
      "inputs": [
        {
          "internalType": "uint256",
          "name": "escrowId",
          "type": "uint256"
        }
      ],
      "name": "refundEscrow",
      "outputs": [],
      "stateMutability": "nonpayable",
      "type": "function"
    },
    {
      "inputs": [
        {
          "internalType": "uint256",
          "name": "escrowId",
          "type": "uint256"
        }
      ],
      "name": "releaseEscrow",
      "outputs": [],
      "stateMutability": "nonpayable",
      "type": "function"
    }
  ],
  "bytecode": "0x608060405234801561001057600080fd5b50610da0806100206000396000f3fe60806040526004361061004a5760003560e01c8063012f52ee1461004f578063356f9dfd146100915780634614874e146100ba57806389cb29dd146100ea578063ed65316414610115575b600080fd5b34801561005b57600080fd5b50610076600480360381019061007191906108da565b61013e565b60405161008896959493929190610972565b60405180910390f35b34801561009d57600080fd5b506100b860048036038101906100b391906108da565b6101d4565b005b6100d460048036038101906100cf91906109ff565b610424565b6040516100e19190610a3f565b60405180910390f35b3480156100f657600080fd5b506100ff610649565b60405161010c9190610a3f565b60405180910390f35b34801561012157600080fd5b5061013c600480360381019061013791906108da565b61064f565b005b60006020528060005260406000206000915090508060000154908060010160009054906101000a900473ffffffffffffffffffffffffffffffffffffffff16908060020160009054906101000a900473ffffffffffffffffffffffffffffffffffffffff16908060030154908060040160009054906101000a900460ff16908060040160019054906101000a900460ff16905086565b600080600083815260200190815260200160002090506000816003015411610231576040517f08c379a000000000000000000000000000000000000000000000000000000000815260040161022890610ab7565b60405180910390fd5b8060040160009054906101000a900460ff1615610283576040517f08c379a000000000000000000000000000000000000000000000000000000000815260040161027a90610b23565b60405180910390fd5b8060040160019054906101000a900460ff16156102d5576040517f08c379a00000000000000000000000000000000000000000000000000000000081526004016102cc90610b8f565b60405180910390fd5b8060010160009054906101000a900473ffffffffffffffffffffffffffffffffffffffff1673ffffffffffffffffffffffffffffffffffffffff163373ffffffffffffffffffffffffffffffffffffffff1614610367576040517f08c379a000000000000000000000000000000000000000000000000000000000815260040161035e90610bfb565b60405180910390fd5b60018160040160016101000a81548160ff0219169083151502179055508060010160009054906101000a900473ffffffffffffffffffffffffffffffffffffffff1673ffffffffffffffffffffffffffffffffffffffff166108fc82600301549081150290604051600060405180830381858888f193505050501580156103f2573d6000803e3d6000fd5b50817f2babb5cd458b6d41108d6d793a75e29ca524e7caa20e2da6c994462010920a7260405160405180910390a25050565b6000813414610468576040517f08c379a000000000000000000000000000000000000000000000000000000000815260040161045f90610c67565b60405180910390fd5b60006001600081548092919061047d90610cb6565b9190505590506040518060c001604052808281526020013373ffffffffffffffffffffffffffffffffffffffff1681526020018573ffffffffffffffffffffffffffffffffffffffff168152602001848152602001600015158152602001600015158152506000808381526020019081526020016000206000820151816000015560208201518160010160006101000a81548173ffffffffffffffffffffffffffffffffffffffff021916908373ffffffffffffffffffffffffffffffffffffffff16021790555060408201518160020160006101000a81548173ffffffffffffffffffffffffffffffffffffffff021916908373ffffffffffffffffffffffffffffffffffffffff1602179055506060820151816003015560808201518160040160006101000a81548160ff02191690831515021790555060a08201518160040160016101000a81548160ff0219169083151502179055509050508373ffffffffffffffffffffffffffffffffffffffff163373ffffffffffffffffffffffffffffffffffffffff16827f9405ad0a6208539879349284d71265479b1623846f70303da1f9890d6e8c10a7866040516106379190610a3f565b60405180910390a48091505092915050565b60015481565b6000806000838152602001908152602001600020905060008160030154116106ac576040517f08c379a00000000000000000000000000000000000000000000000000000000081526004016106a390610ab7565b60405180910390fd5b8060040160009054906101000a900460ff16156106fe576040517f08c379a00000000000000000000000000000000000000000000000000000000081526004016106f590610b23565b60405180910390fd5b8060040160019054906101000a900460ff1615610750576040517f08c379a000000000000000000000000000000000000000000000000000000000815260040161074790610b8f565b60405180910390fd5b8060010160009054906101000a900473ffffffffffffffffffffffffffffffffffffffff1673ffffffffffffffffffffffffffffffffffffffff163373ffffffffffffffffffffffffffffffffffffffff16146107e2576040517f08c379a00000000000000000000000000000000000000000000000000000000081526004016107d990610d4a565b60405180910390fd5b60018160040160006101000a81548160ff0219169083151502179055508060020160009054906101000a900473ffffffffffffffffffffffffffffffffffffffff1673ffffffffffffffffffffffffffffffffffffffff166108fc82600301549081150290604051600060405180830381858888f1935050505015801561086d573d6000803e3d6000fd5b50817f69833829d5691ae09424af7d16f73adf033451149ea9c2fc6fcb4c44108eef6760405160405180910390a25050565b600080fd5b6000819050919050565b6108b7816108a4565b81146108c257600080fd5b50565b6000813590506108d4816108ae565b92915050565b6000602082840312156108f0576108ef61089f565b5b60006108fe848285016108c5565b91505092915050565b610910816108a4565b82525050565b600073ffffffffffffffffffffffffffffffffffffffff82169050919050565b600061094182610916565b9050919050565b61095181610936565b82525050565b60008115159050919050565b61096c81610957565b82525050565b600060c0820190506109876000830189610907565b6109946020830188610948565b6109a16040830187610948565b6109ae6060830186610907565b6109bb6080830185610963565b6109c860a0830184610963565b979650505050505050565b6109dc81610936565b81146109e757600080fd5b50565b6000813590506109f9816109d3565b92915050565b60008060408385031215610a1657610a1561089f565b5b6000610a24858286016109ea565b9250506020610a35858286016108c5565b9150509250929050565b6000602082019050610a546000830184610907565b92915050565b600082825260208201905092915050565b7f457363726f7720646f6573206e6f742065786973740000000000000000000000600082015250565b6000610aa1601583610a5a565b9150610aac82610a6b565b602082019050919050565b60006020820190508181036000830152610ad081610a94565b9050919050565b7f416c72656164792072656c656173656400000000000000000000000000000000600082015250565b6000610b0d601083610a5a565b9150610b1882610ad7565b602082019050919050565b60006020820190508181036000830152610b3c81610b00565b9050919050565b7f416c726561647920726566756e64656400000000000000000000000000000000600082015250565b6000610b79601083610a5a565b9150610b8482610b43565b602082019050919050565b60006020820190508181036000830152610ba881610b6c565b9050919050565b7f4f6e6c792070617965722063616e20726566756e640000000000000000000000600082015250565b6000610be5601583610a5a565b9150610bf082610baf565b602082019050919050565b60006020820190508181036000830152610c1481610bd8565b9050919050565b7f53656e742076616c7565206d757374206d6174636820616d6f756e7400000000600082015250565b6000610c51601c83610a5a565b9150610c5c82610c1b565b602082019050919050565b60006020820190508181036000830152610c8081610c44565b9050919050565b7f4e487b7100000000000000000000000000000000000000000000000000000000600052601160045260246000fd5b6000610cc1826108a4565b91507fffffffffffffffffffffffffffffffffffffffffffffffffffffffffffffffff8203610cf357610cf2610c87565b5b600182019050919050565b7f4f6e6c792070617965722063616e2072656c6561736500000000000000000000600082015250565b6000610d34601683610a5a565b9150610d3f82610cfe565b602082019050919050565b60006020820190508181036000830152610d6381610d27565b905091905056fea2646970667358221220b3b4cd96535d317c33b8d2cf010e710830032d526525952f9030cd7933588b3464736f6c63430008180033",
  "linkReferences": {},
  "deployedLinkReferences": {}
}